:020000041008E2
:1004000000880108D10408100D00000055690A1089
:1004100000000000000000000000000000000000DC
:100420000000000000000000000000003D690A100C
:10043000000000000000000001690A103D050810DE
:100440003D0508105D690A103D0508103D050810BE
:100450003D0508103D0508103D0508103D05081034
:100460003D05081035680A103D0508103D050810C7
:100470003D0508103D0508103D0508103D05081014
:100480003D0508103D0508103D0508103D05081004
:100490003D0508103D0508103D0508103D050810F4
:1004A0003D0508103D0508103D0508103D050810E4
:1004B0003D0508103D0508103D0508103D050810D4
:1004C0007047EFF3108072B6704780F31088704762
:1004D000FFF7F6FF72B6144C144DAC4209DA2168EE
:1004E0006268A368043B02DBC858D050FAE70C34BA
:1004F000F3E70F4B0F4CA34208DA19685A68002043
:10050000043A01DB8850FBE70833F4E726F02EFAC3
:10051000EFF314800221084380F31488064880F327
:10052000098822F02DFBFEE75C050810BC050810C9
:10053000BC0508102406081000900108FEE7FEE73D
:1005400000B504207146084202D0EFF3098001E0B3
:0C055000EFF30880043024F0A7FBFEE766
:10055C00E00A0B1020C10208B006000060090B1065
:10056C00009001080000000060090B1080120208C6
:10057C0040000000A0090B1080A20208000000003F
:10058C00A0090B1000AF020840010000E00A0B109C
:10059C0080BE02080000000060090B10001001086A
:1005AC000000000090110B1000F002080006000083
:1005BC00D0C702083C12000000900108206A00001D
:1005CC0080FA010800180000C0120208806F0000B9
:1005DC00808202080020000080A202082002000095
:1005EC0000A50208000A000040B00208000200004A
:1005FC0080B20208000C000080BE0208200000003F
:10060C0000BF0208200200000010010820000000BA
:08061C0080100108200200001B
:080624000000000000000000CE
:10062C0000000000000000000000000000000000BE
:10063C0000000000000000000000000000000000AE
:1006600010B5034B0A000100186800F056F810BDE1
:1006700064C70208084B10B50400002B02D000210B
:1006800000E000BF054B1868836A002B00D0984734
:1006900020002AF07BFDC046000000001017081063
:1006A00010B5034B0100186800F046F810BDC046B5
:1006B00064C7020830B50024A24201D1002005E041
:1006C000035D651C0C5DA34201D0181B30BD2C00DE
:1006D000F2E7002310B59A4200D110BDCC5CC4549F
:1006E0000133F8E710B5884202D98B18984203D33A
:1006F000002307E08B5C8354013AFBD210BDCC5C35
:10070000C45401339A42FAD1F8E703001218934215
:1007100000D1704719700133F9E74A4370B51100F1
:10072000140000F053F8051E03D022000021FFF74B
:10073000ECFF280070BD000070B50500002910D046
:100740000C1F2368002B00DAE418280000F02AFCB4
:100750001D4A1368002B05D163601460280000F067
:1007600022FC70BDA34209D9216860188342F3D1ED
:1007700018685B6841182160EEE713005A68002A88
:1007800001D0A242F9D919685818A0420BD12068AB
:100790000918581819608242E0D11068526841184F
:1007A00019605A60DAE7A04202D90C232B60D5E722
:1007B00021686018824203D1106852684118216094
:1007C00062605C60CAE7C046E8D90208032370B5DE
:1007D000CD1C9D43083506000C2D1ED20C25A942C8
:1007E0001DD8300000F0DEFB254A146821000029E6
:1007F00019D1244C2368002B03D1300000F0DCF821
:1008000020602900300000F0D7F8431C2BD10C23C6
:100810003000336000F0C7FB03E0002DDFDA0C236B
:100820003360002070BD0B685B1B19D40B2B03D900
:100830000B60CC18256003E04B688C420DD113602F
:10084000300000F0B0FB200007220B30231D904346
:10085000C31AE7D05A42E250E4E763600C00EFE7C6
:100860000C004968C3E70323C41C9C43A042E1D0A9
:10087000211A300000F0A0F8431CDBD1C7E7C046C6
:10088000E8D90208ECD902080FB40B4B13B51C6869
:10089000002C05D0A369002B02D1200000F082FAC1
:1008A00005AB049AA1682000019300F0A5FB16BCDB
:1008B00008BC04B01847C04664C70208084B70B5AE
:1008C0001C680500002C05D0A369002B02D1200074
:1008D00000F068FA2900A268200000F019FE70BD3F
:1008E00064C7020870B505000E00002804D08369B3
:1008F000002B01D100F056FAAB69AC68002B02D195
:10090000280000F04FFA244B9C420FD16C68A38959
:100910001B0702D52369002B1FD12100280000F0FE
:10092000D3F8002819D00120404270BD1B4B9C42D7
:1009300001D1AC68EBE71A4B9C42E8D1EC68E6E7E2
:100940000136A360002B04DAA2699A4216DC0A2958
:1009500014D023685A1C22601970A3683178013BB7
:100960000029EDD1A360002B0FDA22000A31280004
:1009700000F054F8431CD6D00A20D6E72200280005
:1009800000F04CF8431CE8D1CDE70A2023685A1C3C
:1009900022601870C9E7C0463417081054170810B1
:1009A0001417081010B5034B01001868FFF79AFFE1
:1009B00010BDC04664C70208002370B5064C050090
:1009C000080023602AF0D4FB431C03D12368002BCA
:1009D00000D02B6070BDC04608DA02080023C25C5C
:1009E0000133002AFBD1581E704710B50378002B45
:1009F0000FD10B785A4253415B42184010BD00237F
:100A0000CA5C002AFAD0C45C944201D10133F7E7F2
:100A100001300378002BF2D11800EFE7F8B505009C
:100A20000E001400002804D08369002B01D100F0CF
:100A3000B9F9224B9C422DD16C68A369A360A389AC
:100A40001B0731D52369002B2ED023682269F7B20A
:100A5000981A6369F6B2834205DC2100280000F091
:100A600033F9002826D1A3680130013BA360236835
:100A70005A1C22601F706369834204D0A389DB077C
:100A80001AD50A2E18D12100280000F01DF90028DF
:100A900012D00FE00A4B9C4201D1AC68CDE7094B64
:100AA0009C42CAD1EC68C8E72100280000F00CF88D
:100AB0000028CAD0012676423000F8BD341708104D
:100AC0005417081014170810364B70B51D6806002F
:100AD0000C00002D05D0AB69002B02D1280000F0DE
:100AE00061F9314B9C420FD16C680C23E25E93B2EA
:100AF00019072DD4D90611D40923012033603733C7
:100B00001343A381404270BD284B9C4201D1AC6885
:100B1000EBE7274B9C42E8D1EC68E6E75B0713D58F
:100B2000616B002908D023004433994202D0300081
:100B3000FFF702FE002363632422A3899343A3816A
:100B400000236360236923600823A2891343A381E0
:100B50002369002B0BD1A0218022A3898900920058
:100B60000B40934203D02100300000F0D7F901235D
:100B7000A289134011D00023A36063695B42A36183
:100B8000002023698342BED10C23E25E1306BAD54E
:100B900040231343A3810138B5E7920700D463696A
:100BA000A360EDE764C70208341708105417081053
:100BB00014170810F7B58A8905000C00130760D4D4
:100BC0004B68002B04DC0B6C002B01DC0020FEBD0D
:100BD000E76A002FFAD000232E682B6080235B0188
:100BE000216A1A4034D0606DA3895B0706D563681B
:100BF000C01A636B002B01D0236CC01A0200216A5B
:100C000000232800E76AB847A189431C06D12B6856
:100C10001D2B30D82B4ADA40D3072CD50023636034
:100C200023692360CB0405D5431C02D12B68002B1C
:100C300000D16065616B2E600029C7D0230044336A
:100C4000994202D02800FFF777FD00206063BEE7DD
:100C500001232800B847431CC6D12B68002BC3D002
:100C60001D2B01D0162B01D12E60AFE74023A289A6
:100C70001343A381ABE740230B430120A3814042F0
:100C8000A5E70F69002FA1D00B680F60DB1B019354
:100C90000023920700D14B69A360019B002B00DC6D
:100CA00094E7019B3A00216A2800A66AB047002811
:100CB00003DC4023A2891343DFE7019B3F181B1A83
:100CC0000193EAE7010040200B6970B505000C00B4
:100CD000002B01D1002070BD002804D08369002BB7
:100CE00001D100F05FF80B4B9C4209D16C680C22DB
:100CF000A35E002BEED021002800FFF75BFFEAE7A0
:100D0000054B9C4201D1AC68F1E7044B9C42EED10B
:100D1000EC68ECE734170810541708101417081083
:100D2000002310B504000360436083608181436643
:100D3000C281036143618361190008225C30FFF7BF
:100D4000E4FC054B24626362044BA362044BE36240
:100D5000044B236310BDC0467D150810A51508106F
:100D6000DD1508100916081010B5024900F08CF8BE
:100D700010BDC046C90C081070B568254A1E554301
:100D80000E0029007431FFF721FD041E08D0002158
:100D90002A00016046600C30A0606832FFF7B5FCA5
:100DA000200070BD836913B50400002B28D1836433
:100DB000C3640365134B144A1B6882620193984213
:100DC00001D101238361200000F020F86060200041
:100DD00000F01CF8A060200000F018F80022E0608D
:100DE00004216068FFF79CFF01220921A068FFF73A
:100DF00097FF02221221E068FFF792FF0123A3610F
:100E000013BDC04610170810690D0810F8B51C4B2B
:100E100007001E68B369002B02D13000FFF7C2FF44
:100E20004836B4687368013B04D53368002B07D09B
:100E30003668F6E70C22A55E002D0DD06834F2E787
:100E400004213800FFF798FF30600028F0D10C2310
:100E500004003B602000F8BD20000A4B6566256059
:100E60006560A560E36025616561A56108222900D0
:100E70005C30FFF74AFC6563A563A564E564E9E7B8
:100E8000101708100100FFFFF7B504000700002647
:100E900001914834002C01D13000FEBD6368A56883
:100EA0000093009B013B009301D52468F2E7AB89D6
:100EB000012B08D90E22AB5E013304D02900380083
:100EC000019B984706436835EBE7000070B50E00BC
:100ED0001D000E23C95E96B01400002907DA002316
:100EE0002B60B3891B0611D48023DB000FE06A4618
:100EF00000F0B6FB0028F2DBF022019B1202134047
:100F0000054A9B185A4253412B60EDE740230020CD
:100F1000236016B070BDC04600E0FFFFF7B50226A3
:100F20008B8905000C00334206D023004733236031
:100F3000236101236361F7BD01AB6A46FFF7C6FF7A
:100F4000009907002800FFF741FC002808D10C2277
:100F5000A35E9A05EFD4032293431E43A681E4E7E0
:100F60000F4BAB628023A28920601343A381009BB7
:100F700020616361019B002B0DD00E23E15E2800F0
:100F800000F080FB002806D00322A38993431A00B7
:100F900001231343A381A0893843A081CBE7C04636
:100FA000690D081070477047936810B5013B936056
:100FB000002B04DA9469A34207DB0A2905D01368E1
:100FC000581C10601970080010BDFFF727FD0100C4
:100FD000F9E7F8B506000F001400D518AC4201D1AE
:100FE000002007E021783A003000FFF7DDFF0134F0
:100FF000431CF3D1F8BD0000F0B5A1B003900F0081
:1010000016001D00002805D083690593002B01D12F
:10101000FFF7C8FE7B4B9F425CD1039B5F68BB8997
:101020001B0763D53B69002B60D0002308AC6361CC
:10103000203363761033A376079535002B78002B89
:1010400001D0252B5CD1AB1B05930CD032003900AD
:101050000398FFF7BEFF431C00D1C4E06269059B03
:101060009446634463612B78002B00D1BBE00122DE
:1010700000235242626004A9543252186E1C23604D
:10108000E360A3601370A365317805225E4800F029
:101090001FFB751C002835D12268D30604D55323C5
:1010A00004A95B1820211970130704D5532304A940
:1010B0005B182B21197033782A2B2CD03500002196
:1010C0000A20E3682A786E1C303A092A64D900297C
:1010D0002ED026E04D4B9F4202D1039B9F689EE796
:1010E0004B4B9F429BD1039BDF6898E739000398E5
:1010F000FFF7EAFC002898D00120404221B0F0BD63
:1011000001359BE7404B2268C01A012383401343FB
:1011100023602E00B8E7079B191D1B680791002B61
:1011200001DB0B9304E05B42E36002231343236083
:101130002B782E2B0AD16B782A2B35D1079B0235C1
:101140001A1D1B680792002B2BDB0993314E29785F
:101150000322300000F0BCFA002806D04023801B98
:1011600083402268013513432360297806222A48E8
:101170006E1C217600F0ACFA00283AD0274B002BE9
:1011800025D10722079B07339343083307936369ED
:10119000049A9B18636150E7434301219B18350073
:1011A00090E701235B42D0E700230A201A000135B3
:1011B000636029786E1C3039092903D9002BC5D00A
:1011C0000992C3E74243012352183500F1E707AB08
:1011D00000933A00124B2100039800E000BF0490F6
:1011E000049B0133D3D1BB895B0600D584E70D98FE
:1011F00084E707AB00933A00094B2100039800F005
:101200007FF8ECE73417081074170810541708100B
:10121000141708107A1708107E1708100000000035
:10122000D30F0810F7B5150001938A680B69009079
:101230000C00934200DA130022002B604332127834
:10124000002A01D001332B6023689B0602D52B684E
:1012500002332B60062723681F4027D02300433327
:101260001B785A1E93412268920630D422000199BD
:1012700043320098089EB047431C25D006232068BF
:101280002A68E16803400025042B03D18D1AEB4343
:10129000DB171D40A3682269934201DD9B1AED18FC
:1012A0000027BD4220D1002010E00137E3682A6802
:1012B0009B1ABB42D2DD220001231932019900980A
:1012C000089EB047431CF0D101204042FEBD3020B3
:1012D000E1184331087021005A1C45310978A218E1
:1012E000433202331170C1E7220001231A320199FF
:1012F0000098089EB047431CE6D00137D1E70000B4
:10130000F0B589B004920A0043320593039002922B
:101310000A7E0C000E9B6E2A00D186E01FD8632A3D
:1013200033D008D8002A00D18CE0582A4DD02500AF
:1013300042352A7030E0642A01D0692AF7D1196851
:1013400025680A1D280629D508681A60002803DACE
:101350002D23029A404213706B4E0A274FE0732AE6
:1013600074D008D86F2A1FD0702AE0D120220968D3
:101370000A43226003E0752A16D0782AD7D12200CA
:10138000782145321170614E22E025001A684235FD
:10139000111D196013682B70012365E008681A603D
:1013A0006906D3D500B2D1E719682568081D186011
:1013B00008682E0605D5544E08276F2A1BD00A2729
:1013C00019E06D06F7D580B2F5E745314E4E0A704B
:1013D00018682268011D00681960150621D5D30719
:1013E00002D520231A4322601027002803D120238E
:1013F00022689A4322602300002243331A706368F4
:10140000A360002B58DB042221689143216000284F
:1014100054D1029D002B5AD02500337842352B70D1
:1014200055E05506DBD580B2D9E71A680D68101D66
:101430004969186013682E0601D5196002E06D062F
:10144000FBD519800023029D23614FE01A68111D0E
:101450001960156800216268280000F039F9002839
:1014600001D0401B6060636823610023029A1370FF
:101470003CE023692A0004990398059DA847431C72
:101480003ED023689B0715D4079BE068984239DA61
:10149000180037E022000123193204990398059EB1
:1014A000B047431C2CD00135E368079A9B1AAB4226
:1014B000F0DCE9E70025F7E70028ADD0029D390010
:1014C00001F078FD735C013D2B700028F7D1082FE7
:1014D00009D12368DB0706D563682269934202DCE1
:1014E0003023013D2B70029B5B1B2361059B07AAE8
:1014F00000932100049B0398FFF794FE431CB8D18E
:101500000120404209B0F0BD851708109617081059
:1015100070B506000D001400002804D08369002B6C
:1015200001D1FFF73FFC124B9C4211D17468A368B4
:10153000013BA360002B05DAA269934212DBEBB2F8
:101540000A2B0FD02368E8B25A1C22601D7070BDB0
:10155000084B9C4201D1B468E9E7074B9C42E6D1B5
:10156000F468E4E7220029003000FFF757FAEEE7BD
:1015700034170810541708101417081070B50C0011
:101580000E25495F00F0B0F8002803DB636D1B18DF
:10159000636570BDA389024A1340A381F9E7C04681
:1015A000FFEFFFFFF8B51F008B8905000C00160048
:1015B000DB0505D50E23C95E0022022300F074F876
:1015C000A389054A28001340A38132000E23E15E5F
:1015D0003B0000F01FF8F8BDFFEFFFFF70B50C00F7
:1015E0000E25495F00F060F8A389421C03D1054A2B
:1015F0001340A38170BD802252011343A381606513
:10160000F8E7C046FFEFFFFF10B50E23C95E00F0FC
:1016100015F810BD70B50500080011000022064C39
:1016200022601A001FF066F9431C03D12368002BC7
:1016300000D02B6070BDC04608DA0208002370B5E8
:10164000064C05000800236029F06AFD431C03D105
:101650002368002B00D02B6070BDC04608DA02085A
:10166000002370B5064C050008001100236029F026
:101670005FFD431C03D12368002B00D02B6070BD9D
:1016800008DA0208002370B5064C05000800236044
:1016900029F056FD431C03D12368002B00D02B609A
:1016A00070BDC04608DA020870B5050008001100D8
:1016B0000022064C22601A0029F04AFD431C03D187
:1016C0002368002B00D02B6070BDC04608DA0208EA
:1016D000C9B28218904201D10020704703788B4232
:1016E000FBD00130F6E7000070B5050008001100DE
:1016F0000022064C22601A0029F032FD431C03D15F
:101700002368002B00D02B6070BDC04608DA0208A9
:1017100068C7020800000000000000000000000090
:1017200000000000000000000000000000000000B9
:1017300000000000000000000000000000000000A9
:101740000000000000000000000000000000000099
:101750000000000000000000000000000000000089
:101760000000000000000000000000000000000079
:1017700000000000232D302B2000686C4C006566B3
:1017800067454647003031323334353637383941D2
:1017900042434445460030313233343536373839E8
:1017A000616263646566000010B50123102906D8E4
:1017B000002903D00A000349FEF78BFF002318001D
:1017C00010BDC04668180810F0B514001F4A050087
:1017D00017681F4A83B016681E4A126810008446B4
:1017E0000192BA19624401208A421DD81A4A12781D
:1017F0001A70002F04D03A0018492800FEF769FF3C
:1018000025606760002E11D1019BA660E6603E0056
:10181000002B16D0AD191A001E0011492800FEF742
:1018200058FF00202561666103B0F0BDED1932005C
:101830000C492800FEF74DFF019BA560E660002BD8
:10184000E8D1236163610020EEE7C0461CD30A1093
:1018500040D30A1064D30A10FBD20A10FCD20A103B
:1018600044D30A1020D30A1000010203040506071E
:1018700008090A0B0C0D0E0F10B501230C002028CF
:1018800005D1202203492000FEF723FF0023180082
:1018900010BDC04698180810A0A1A2A3A4A5A6A791
:1018A000A8A9AAABACADAEAFB0B1B2B3B4B5B6B740
:1018B000B8B9BABBBCBDBEBF70B505002B6801206E
:1018C000202B0CD9064B08701C68002C04D0481C37
:1018D00022000449FEF7FDFE002001342C6070BD9B
:1018E00088D30A1068D30A1010B5040022680B00D0
:1018F00001201F2A07D9180020220349FEF7E9FE1C
:1019000020230020236010BD4419081010B50400E6
:1019100022680B000120112A07D91800122203495E
:10192000FEF7D7FE12230020236010BD30190810E7
:10193000303630343536353237323832393130306E
:1019400031300000AAAAAAAAAAAAAAAABBBBBBBBFA
:10195000BBBBBBBBCCCCCCCCCCCCCCCCDDDDDDDDC7
:10196000DDDDDDDD0DDF704716DF704717DF704707
:1019700018DF704719DF70471ADF70471BDF7047A9
:101980001CDF70471DDF70470EDF704711DF7047A7
:1019900012DF704713DF704714DF704715DF7047A1
:1019A00010DFFEE710DFFEE770B51E0086B01B6893
:1019B000029003912020012104920593FFF7EAFF92
:1019C000051E15DD0123019304AB009302AA012338
:1019D0000021FFF7E1FF04002800FFF7DFFF002CE4
:1019E00006DB02D0200006B070BD059B3360F9E72E
:1019F0000520F8E730B589B003AB049304230390C6
:101A000006912120012105930793FFF7C3FF051ECF
:101A100011DD0123019306AB009304AA01230021E9
:101A2000FFF7BAFF04002800FFF7B8FF002C02DB25
:101A3000200009B030BD0520FBE7C04600207047FC
:101A400030B595B007AC0500342200212000FEF728
:101A50005CFE3423012104938020323B03940595DE
:101A60000693FFF797FF041E0FDD0123019305ABDB
:101A7000009303AA01230021FFF78EFF0500200039
:101A8000FFF78CFF280015B030BD84256D42F9E7C3
:101A9000862040427047C046862040427047C0467C
:101AA000862040427047C046F0B5C6468046222098
:101AB00000B594B00F00160000212E2268441D00CE
:101AC000FEF723FE01230793434607ACA38034238C
:101AD00001218020A7600394049305960695FFF7E3
:101AE00059FF041E10DD002303AA01930093002177
:101AF0000233FFF751FF05002000FFF74FFF2800DA
:101B000014B004BC9046F0BD84256D42F7E7C04692
:101B100030B505001A2093B02E2200216844FEF74C
:101B2000F4FD022305AC0593012132338020A5800A
:101B300003940493FFF72EFF041E0EDD002303AA77
:101B40000193009300210133FFF726FF05002000D9
:101B5000FFF724FF280013B030BD84256D42F9E75C
:101B6000F0B507002A2097B00E00150000212E22A4
:101B70006844FEF7CAFD03230993313309AC04938B
:101B80000121303B8020A78003940596069307959A
:101B90000893FFF7FFFE041E0FDD0223019305AB40
:101BA000009303AA01230021FFF7F6FE05002000A1
:101BB000FFF7F4FE280017B0F0BD84256D42F9E769
:101BC000F0B5C6460700222000B594B00E001500FF
:101BD00000212E2268449846FEF797FD042307ACA7
:101BE0000793012130338020A78003940493059646
:101BF0000695FFF7CFFE041E14DD0123019305AB0C
:101C0000009303AA01230021FFF7C6FE4346069A6C
:101C100005001A602000FFF7C1FE280014B004BCC4
:101C20009046F0BD84256D42F7E7C046F0B5C64644
:101C30000700222000B594B00E00150000212E22CE
:101C400068449846FEF761FD052307AC0793012120
:101C50002F338020A7800394049305960695FFF701
:101C600099FE041E14DD0123019305AB009303AA22
:101C700001230021FFF790FE4346069A05001A60F3
:101C80002000FFF78BFE280014B004BC9046F0BD86
:101C900084256D42F7E7C046F0B50E2407003220D8
:101CA00099B06C442180160000212E226844FEF772
:101CB0002CFD06230B932E330693323B0BAD08937A
:101CC00001210A3380200794AF80059509960A9375
:101CD000FFF760FE041E0EDD002305AA01930093AA
:101CE00000210333FFF758FE05002000FFF756FEE2
:101CF000280019B0F0BD84256D42F9E706C0704791
:101D0000006870474068704770B50600222094B0A4
:101D10000D002E2200216844FEF7F7FC07230793ED
:101D20002D3307AC04930121283B8020A680039427
:101D300005950693FFF72EFE041E0EDD002303AA71
:101D40000193009300210233FFF726FE05002000D7
:101D5000FFF724FE280014B070BD84256D42F9E71A
:101D600070B50600222094B00D002E220021684498
:101D7000FEF7CBFC082307932C3307AC0493012117
:101D8000283B8020A680039405950693FFF702FE6A
:101D9000041E0FDD0123019305AB009303AA012369
:101DA0000021FFF7F9FD05002000FFF7F7FD2800EF
:101DB00014B070BD84256D42F9E7C04670B50600C9
:101DC000222094B00D002E2200216844FEF79DFCD5
:101DD000092307932B3307AC04930121303B802068
:101DE000A680039405950693FFF7D4FD041E0FDD2E
:101DF0000123019305AB009303AA01230021FFF700
:101E0000CBFD05002000FFF7C9FD280014B070BD10
:101E100084256D42F9E7C046F0B5C64600B596B0D8
:101E200004000F001600002130220AA89846FEF791
:101E30006CFC0A230993236809ADAB6134230121AB
:101E400004938020303B05940395069307970896EA
:101E5000FFF7A0FD041E14DD0223019305AB0093E0
:101E600003AA01230021FFF797FD4346089A0500C6
:101E70001A602000FFF792FD280016B004BC9046BF
:101E8000F0BD84256D42F7E7F0B597B004000F0070
:101E90001600002130220AA8FEF737FC0B23099315
:101EA000236809ADAB613423012106938020303BC8
:101EB00003940595079708960493FFF76BFD041E9E
:101EC0000FDD0123019303AB009305AA0223002138
:101ED000FFF762FD05002000FFF760FD280017B046
:101EE000F0BD84256D42F9E7F0B50500222095B0DC
:101EF0000F00160000212E226844FEF706FC0C237A
:101F000007932B6807ACA36134230121049380203D
:101F1000303BA7802661039405950693FFF73AFDB1
:101F2000041E0FDD0123019305AB009303AA0123D7
:101F30000021FFF731FD05002000FFF72FFD2800ED
:101F400015B0F0BD84256D42F9E7C046F0B5050037
:101F5000222095B00F00160000212E226844FEF7C3
:101F6000D4FB0D2307932B6807ACA3613423012115
:101F700004938020303BA780266103940595069347
:101F8000FFF708FD041E0FDD0123019305AB00934D
:101F900003AA01230021FFF7FFFC05002000FFF743
:101FA000FDFC280015B0F0BD84256D42F9E7C04660
:101FB000F0B5C64600B598B0040088461700002169
:101FC00030220CA81E00FEF7A0FB0E230B93236803
:101FD0000BADAB613423049343460593042308936C
:101FE0001E9B0121802007940395069709960A936A
:101FF000FFF7D0FC041E14DD0223019307AB00930E
:1020000003AA02230021FFF7C7FC0A9A1F9B0500C1
:102010001A602000FFF7C2FC280018B004BC9046EC
:10202000F0BD84256D42F7E730B595B0040030224D
:10203000002108A8FEF769FB0F230793236807AD6B
:10204000AB613423012104938020303B0594039538
:102050000693FFF79FFC041E0FDD0123019305ABE0
:10206000009303AA01230021FFF796FC050020003E
:10207000FFF794FC280015B030BD84256D42F9E7C8
:10208000F0B5C64600B596B004000F00160000215A
:1020900030220AA89846FEF738FB102309932368DC
:1020A00009ADAB613423012104938020303B0594BA
:1020B0000395069307970896FFF76CFC041E14DD42
:1020C0000223019305AB009303AA01230021FFF72C
:1020D00063FC4346089A05001A602000FFF75EFC87
:1020E000280016B004BC9046F0BD84256D42F7E789
:1020F00070B594B005000E003022002108A8FEF74C
:1021000004FB112307932B6807ACA361342301213F
:1021100004938020303B2661039405950693FFF7D6
:1021200039FC041E0FDD0123019305AB009303AAC4
:1021300001230021FFF730FC05002000FFF72EFCF3
:10214000280014B070BD84256D42F9E7F0B597B052
:1021500004000F001600002130220AA8FEF7D5FA6D
:1021600012230993236809ADAB613423012106933F
:102170008020303B03940595079708960493FFF75A
:1021800009FC041E0FDD0123019303AB009305AA94
:1021900002230021FFF700FC05002000FFF7FEFBF3
:1021A000280017B0F0BD84256D42F9E7F0B5C646AA
:1021B00000B596B004000F001600002130220AA8D6
:1021C0009846FEF7A2FA13230993236809ADAB6181
:1021D0003423012104938020303B0594039506931A
:1021E00007970896FFF7D6FB041E14DD0223019320
:1021F00005AB009303AA01230021FFF7CDFB434663
:10220000089A05001A602000FFF7C8FB280016B0E6
:1022100004BC9046F0BD84256D42F7E7F0B597B059
:1022200004000F001600002130220AA8FEF76DFA04
:1022300014230993236809ADAB613423012106936C
:102240008020303B03940595079708960493FFF789
:10225000A1FB041E0FDD0123019303AB009305AA2C
:1022600002230021FFF798FB05002000FFF796FBF3
:10227000280017B0F0BD84256D42F9E730B595B060
:1022800004003022002108A8FEF73FFA1523079327
:10229000236807ADAB613423012104938020303BD8
:1022A000059403950693FFF775FB041E0FDD0123CC
:1022B000019305AB009303AA01230021FFF76CFBF8
:1022C00005002000FFF76AFB280015B030BD84250B
:1022D0006D42F9E770B594B006000D003022002180
:1022E00008A8FEF712FA16230793336807ACA36118
:1022F0003423012104938020303B039405950693F9
:10230000FFF748FB041E0FDD0123019305AB00938B
:1023100003AA01230021FFF73FFB05002000FFF780
:102320003DFB280014B070BD84256D42F9E7C0461E
:10233000F0B50500222095B00F00160000212E22D6
:102340006844FEF7E2F9172307932B6807ACA361F3
:102350003423012104938020303BA780266103941D
:1023600005950693FFF716FB041E0FDD012301936D
:1023700005AB009303AA01230021FFF70DFB050025
:102380002000FFF70BFB280015B0F0BD84256D423F
:10239000F9E7C046F0B50500222095B00F00160001
:1023A00000212E226844FEF7B0F9182307932B680A
:1023B00007ACA3613423012104938020303BA78024
:1023C0002661039405950693FFF7E4FA041E0FDDDA
:1023D0000123019305AB009303AA01230021FFF71A
:1023E000DBFA05002000FFF7D9FA280015B0F0BD90
:1023F00084256D42F9E7C046F0B597B004000F00A0
:102400001600002130220AA8FEF77FF9192309934C
:10241000236809ADAB613423012106938020303B52
:1024200003940595079708960493FFF7B3FA041EE3
:102430000FDD0123019303AB009305AA02230021C2
:10244000FFF7AAFA05002000FFF7A8FA280017B046
:10245000F0BD84256D42F9E7F0B5C64600B596B0EB
:1024600004000F001600002130220AA89846FEF74B
:102470004CF91A230993236809ADAB613423012178
:1024800004938020303B05940395069307970896A4
:10249000FFF780FA041E14DD0223019305AB0093BD
:1024A00003AA01230021FFF777FA4346089A0500A3
:1024B0001A602000FFF772FA280016B004BC90469C
:1024C000F0BD84256D42F7E7F0B597B004000F002A
:1024D0001600002130220AA8FEF717F91B230993E2
:1024E000236809ADAB613423012106938020303B82
:1024F00003940595079708960493FFF74BFA041E7B
:102500000FDD0123019303AB009305AA02230021F1
:10251000FFF742FA05002000FFF740FA280017B045
:10252000F0BD84256D42F9E730B595B00400302246
:10253000002108A8FEF7E9F81C230793236807ADDC
:10254000AB613423012104938020303B0594039533
:102550000693FFF71FFA041E0FDD0123019305AB5D
:10256000009303AA01230021FFF716FA05002000BB
:10257000FFF714FA280015B030BD84256D42F9E745
:10258000F0B50400322099B00F00160000212A2275
:1025900068441D00FEF7B9F81D230B936B461C869B
:1025A0001E9B0F971795002B36D00BAB059334234A
:1025B0000693209B0793219B08931E9B09931F9BC7
:1025C0000A93229B0393239B0493102D27D8002E5C
:1025D00006D0002D04D02A00310013A8FEF779F8A8
:1025E00001218020FFF7D6F9051E1BDD1E9B01226D
:1025F0005C1EA341019203AA02330092002105AAA6
:10260000FFF7CAF9049A249B04001A602800FFF718
:10261000C5F9200019B0F0BD1F9B002BC5D0872441
:102620006442F6E784246442F3E7C046F0B5040050
:10263000322099B00F00160000212A2268441D00A4
:10264000FEF763F81E230B936B461C861E9B0F97A9
:102650001795002B36D00BAB059334230693209BA4
:102660000793219B08931E9B09931F9B0A93229B10
:102670000393239B0493102D27D8002E06D0002D02
:1026800004D02A00310013A8FEF723F8012180208E
:10269000FFF780F9051E1BDD1E9B01225C1EA34176
:1026A000019203AA02330092002105AAFFF774F9F0
:1026B000049A249B04001A602800FFF76FF9200099
:1026C00019B0F0BD1F9B002BC5D087246442F6E7EC
:1026D00084246442F3E7C046F0B5C64680462A200B
:1026E00000B596B00F00160000212E2268441D0090
:1026F000FEF70BF81F230993434609ACA38034234C
:1027000006931C9B012103931D9B80202761059448
:10271000079608950493FFF73DF9041E14DD012385
:10272000019303AB009305AA02230021FFF734F9BC
:10273000049A1E9B05001A602000FFF72FF928005D
:1027400016B004BC9046F0BD84256D42F7E7C04644
:10275000F0B5C64680462A2000B596B00F00160098
:1027600000212E2268441D00FDF7CFFF202309938E
:10277000434609ACA380342304931C9B0121079397
:102780001D9B802027610394059606950893FFF70B
:1027900001F9041E10DD002303AA01930093002118
:1027A0000333FFF7F9F805002000FFF7F7F82800DA
:1027B00016B004BC9046F0BD84256D42F7E7C046D4
:1027C000F0B50500322099B00C00170000212E2230
:1027D00068441E00FDF799FF21230B936B461D866D
:1027E0001E9B0F94002B28D00BAB0593342305AC14
:1027F00063601E9BE66023611F9B03AE6361209BA9
:10280000A7600393219B012173608020FFF7C2F82A
:102810000323051E2BDD01220096019200212200D8
:102820002800FFF7B9F87268229B04001A6028009C
:10283000FFF7B4F8200019B0F0BD1F9B002B19D191
:102840000BAB0593342305AC63601F9BE6602361EB
:102850006361209B03AE0393219BA76073600121FA
:102860008020FFF797F8051E01DD0223D3E78424BB
:102870006442DFE787246442DCE7C046F0B5050028
:10288000322099B00C00170000212E2268441E004F
:10289000FDF73BFF22230B936B461D861E9B0F9477
:1028A000002B28D00BAB0593342305AC63601E9B33
:1028B000E66023611F9B03AE6361209BA7600393C7
:1028C000219B012173608020FFF764F80323051E1C
:1028D0002BDD012200960192002122002800FFF743
:1028E0005BF87268229B04001A602800FFF756F814
:1028F000200019B0F0BD1F9B002B19D10BAB059325
:10290000342305AC63601F9BE66023616361209BF9
:1029100003AE0393219BA760736001218020FFF722
:1029200039F8051E01DD0223D3E784246442DFE782
:1029300087246442DCE7C04670B594B006000D0001
:102940003022002108A8FDF7E0FE23230793336817
:1029500007ACA3613423012104938020303B03940E
:1029600005950693FFF716F8041E0FDD012301936A
:1029700005AB009303AA01230021FFF70DF8050022
:102980002000FFF70BF8280014B070BD84256D42BD
:10299000F9E7C046F0B595B007000E00150000211C
:1029A000302208A8FDF7B1FE242307933B6807AC4B
:1029B000A361342301218020039404930596069596
:1029C000FEF7E8FF041E0FDD0123019305AB009322
:1029D00003AA01230021FEF7DFFF05002000FEF718
:1029E000DDFF280015B0F0BD84256D42F9E7C04633
:1029F000F0B507002A2097B00E00039200212E2286
:102A000068441D00FDF781FE252309932B6809AC5E
:102A1000A3613423069303AB079304230121802091
:102A2000A780A66005940893FEF7B4FF041E0EDD90
:102A3000002305AA0193009300210233FEF7ACFFA7
:102A400005002000FEF7AAFF280017B0F0BD84257E
:102A50006D42F9E730B595B004003022002108A896
:102A6000FDF753FE26230793236807ADAB6134239C
:102A7000012104938020303B059403950693FEF7D3
:102A800089FF041E0FDD0123019305AB009303AA08
:102A900001230021FEF780FF05002000FEF77EFFE6
:102AA000280015B030BD84256D42F9E7F0B5060069
:102AB000322099B00F00140000212E2268441D001E
:102AC000FDF723FE27230B936B461F8633680F9475
:102AD0001193219B1293002D45D01F9B002B25D0D5
:102AE0000BAB0593342305AC63601E9B03AFE3601F
:102AF0001F9BA5602361209B01216361042380202B
:102B00007B600396FEF746FF061E32DD032301229B
:102B100000970192002122003000FEF73DFF0400E3
:102B20003000FEF73BFF200019B0F0BD209B002BCA
:102B30001CD10BAB0593342305AC63601E9B03AF24
:102B4000E360209BA56023616361042301217B6016
:102B500080200396FEF71EFF061E0ADD2B005D1E79
:102B6000AB410133D3E71E9B002BB6D087246442D0
:102B7000D9E784246442D6E7F0B5C64605002A208A
:102B800000B596B08846170000212E2268441E002A
:102B9000FDF7BBFD28230993434609ACA3801C9B8A
:102BA000012123612B688020A36134230693303BED
:102BB00005940797089603950493FEF7EBFE041E11
:102BC00011DD0123019303AB009305AA0223002129
:102BD000FEF7E2FE05002000FEF7E0FE280016B03A
:102BE00004BC9046F0BD84256D42F7E730B595B042
:102BF00005000C003022002108A8FDF786FD2923DE
:102C0000079307AB0393342305950493069400259B
:102C1000002C02D1280015B030BD01218020FEF724
:102C2000B9FE041E0DDD0123019305AB009303AA39
:102C300001230021FEF7B0FE05002000FEF7AEFEE6
:102C4000E8E784256D42E5E770B50600322098B0CC
:102C50000C00039200212E2268441D00FDF755FD53
:102C60002A230B936B460D941E86002D21D00BABAF
:102C70000593342305AC636003ABA3600423E360D6
:102C80001C9B2561636101218020FEF783FE0323E5
:102C9000051E25DD0022002101920092280022005D
:102CA000FEF77AFE04002800FEF778FE200018B038
:102CB00070BD1C9B002B16D10BAB0593342305ACC8
:102CC000636003ABA3600423E3601C9B01212361C9
:102CD00063618020FEF75EFE051E01DD0223D9E759
:102CE00084246442E2E787246442DFE730B58FB092
:102CF0000290039102A908910A93082112AB0C9348
:102D0000042309910B92073905AA60200D930692BE
:102D10000793FEF73FFE041E10DD0123019306AB6F
:102D2000009308AA03230021FEF736FE05002000C9
:102D3000FEF734FE002D01D1059800E00B200FB006
:102D400030BDC04630B591B0039204AA0892082263
:102D5000099203AA0A920422049005910B9207A9F2
:102D60000D92149A0C91612001210E920F93FEF79F
:102D700011FE041E10DD022301930CAB009308AA80
:102D800002230021FEF708FE05002000FEF706FEE4
:102D9000002D01D1079800E00B2011B030BDC046D6
:102DA00030B58DB00290039105A902AB08910421C2
:102DB0000693082309916220033907930A920B9323
:102DC000FEF7E8FD041E10DD0223019308AB00931B
:102DD00006AA01230021FEF7DFFD05002000FEF713
:102DE000DDFD002D01D1059800E00B200DB030BDB8
:102DF00030B58BB002AB06930823079305AB08935D
:102E0000042302900391012163200993FEF7C2FD80
:102E1000041E10DD0123019308AB009306AA0123D1
:102E20000021FEF7B9FD05002000FEF7B7FD002DDB
:102E300001D1059800E00B200BB030BD0C2070478D
:102E40000C207047002310B586B0039303AB0493A6
:102E50000423012164200593FEF79CFD041E0BDD75
:102E60000123019304AB0093002200230021FEF70D
:102E700093FD2000FEF792FD039806B010BDC046FA
:102E800002B4714649084900095C49008E4402BCFD
:102E90007047C04603B47146490840004900095ACA
:102EA00049008E4403BC7047002243088B4274D310
:102EB00003098B425FD3030A8B4244D3030B8B423B
:102EC00028D3030C8B420DD3FF22090212BA030C44
:102ED0008B4202D31212090265D0030B8B4219D325
:102EE00000E0090AC30B8B4201D3CB03C01A524145
:102EF000830B8B4201D38B03C01A5241430B8B428D
:102F000001D34B03C01A5241030B8B4201D30B0375
:102F1000C01A5241C30A8B4201D3CB02C01A52419C
:102F2000830A8B4201D38B02C01A5241430A8B425F
:102F300001D34B02C01A5241030A8B4201D30B0248
:102F4000C01A5241CDD2C3098B4201D3CB01C01A62
:102F5000524183098B4201D38B01C01A524143096C
:102F60008B4201D34B01C01A524103098B4201D35A
:102F70000B01C01A5241C3088B4201D3CB00C01AC7
:102F8000524183088B4201D38B00C01A524143083F
:102F90008B4201D34B00C01A5241411A00D2014664
:102FA000524110467047FFE701B5002000F0F0F8ED
:102FB00002BDC0460029F7D076E7704703460B43B1
:102FC0007FD4002243088B4274D303098B425FD322
:102FD000030A8B4244D3030B8B4228D3030C8B424E
:102FE0000DD3FF22090212BA030C8B4202D3121234
:102FF000090265D0030B8B4219D300E0090AC30B09
:103000008B4201D3CB03C01A5241830B8B4201D3B5
:103010008B03C01A5241430B8B4201D34B03C01A9E
:103020005241030B8B4201D30B03C01A5241C30A16
:103030008B4201D3CB02C01A5241830A8B4201D387
:103040008B02C01A5241430A8B4201D34B02C01A71
:103050005241030A8B4201D30B02C01A5241CDD216
:10306000C3098B4201D3CB01C01A524183098B4261
:1030700001D38B01C01A524143098B4201D34B014A
:10308000C01A524103098B4201D30B01C01A5241AD
:10309000C3088B4201D3CB00C01A524183088B4234
:1030A00001D38B00C01A524143088B4201D34B001D
:1030B000C01A5241411A00D201465241104670478F
:1030C0005DE0CA0F00D04942031000D34042534094
:1030D00000229C4603098B422DD3030A8B4212D354
:1030E000FC22890112BA030A8B420CD38901921186
:1030F0008B4208D3890192118B4204D389013AD0C3
:10310000921100E08909C3098B4201D3CB01C01A97
:10311000524183098B4201D38B01C01A52414309AA
:103120008B4201D34B01C01A524103098B4201D398
:103130000B01C01A5241C3088B4201D3CB00C01A05
:10314000524183088B4201D38B00C01A5241D9D21D
:1031500043088B4201D34B00C01A5241411A00D29E
:103160000146634652415B10104601D34042002B9A
:1031700000D54942704763465B1000D3404201B519
:10318000002000F005F802BD0029F8D016E77047CE
:103190007047C0468446101C62468C46191C634624
:1031A00000E0C0461FB500F055FD002801D4002105
:1031B000C8421FBD10B500F0ADFC4042013010BD4B
:1031C00010B500F047FD002801DB002010BD0120F4
:1031D00010BDC04610B500F03DFD002801DD002007
:1031E00010BD012010BDC04610B500F0CFFC002876
:1031F00001DC002010BD012010BDC04610B500F05C
:10320000C5FC002801DA002010BD012010BDC04619
:10321000994201D1801A04D002D201204042704765
:1032200001207047002B11D1002A0FD1002900D1B5
:10323000002802D00021C943081C07B4024802A19B
:103240004018029003BDC04649FFFFFF03B4684623
:1032500001B5029800F080F8019B9E4602B00CBCBC
:103260007047C046F0B5CE46474615042D0C2E00DB
:1032700080B50704140C3F0C9946030C7E435D4354
:10328000674363437F19340CE4199C46A54203D974
:1032900080235B029846C4444B4643435143250C6C
:1032A00036046544360C2404A4195B19591820000F
:1032B0000CBC90469946F0BD70B505000C0000228C
:1032C000002328002100FFF77BFF002804D12800FD
:1032D000210000F00DF870BD80231B06E1182800C6
:1032E00000F006F802000B00002150429941F2E77D
:1032F00070B500220B4B0D00040000F013FD01F02F
:10330000B3FB060001F002FB0022074B00F00AFDB0
:1033100002000B002000290000F076FF01F0A4FB62
:10332000310070BD0000F03D0000F04170B50600B6
:10333000080001F0B1FA0022064B00F0F3FC0D008A
:103340000400300001F0E2FA2B00220000F0C6F881
:1033500070BDC0460000F041F0B54F464646D64627
:10336000C0B5040082B00D00914698468B422FD81C
:103370002CD04146484601F06BFB29000600200096
:1033800001F066FB331A9C46203B9A4600D576E056
:103390004B46524693401F004B46624693401E00E8
:1033A000AF4228D825D05346A41BBD41002B00DADC
:1033B0007BE00022002300920193012352469340B8
:1033C0000193012362469340009318E08242D0D9D2
:1033D00000220023009201930A9B002B01D01C6065
:1033E0005D600098019902B01CBC90469946A246C7
:1033F000F0BDA342D7D90022002300920193634677
:10340000002BE9D0FB079846414672080A437B0827
:1034100066460EE0AB4201D1A2420CD8A41A9D41EF
:10342000012024196D410021013E24184D41002E38
:1034300006D0AB42EED9013E24196D41002EF8D1E1
:1034400000980199534600196941002B23DB2B009A
:103450005246D3402A006446E2401C005346150001
:10346000002B2DDB26005746BE4033002600674662
:10347000BE403200801A994100900191ACE762464B
:1034800020239B1A4A46DA406146130042468A408E
:1034900017001F4380E7624620239B1A2A006646D6
:1034A0009A402300F3401343D4E7624620230021CF
:1034B0009B1A0022009101920122DA40019280E7DA
:1034C0002023624626009B1ADE402F00B046664647
:1034D000B74046463B003343C8E7C046F0B54F46C9
:1034E0004646D6460C000903C0B5490A470F5E00A0
:1034F00039431F03DB0F9C4665007B0A570F1F43B0
:103500006D0DE40F760DA146C000B846D200AB1B8E
:1035100064457BD0002B5FDD002E00D0A4E03E0090
:10352000164300D112E15E1E002E00D09EE1871AE4
:103530004346B84280410125C91A4042091A0B028C
:1035400000D431E149024E0A002E00D16EE1300074
:1035500001F060FA0300083B1F2B00DD61E120222F
:103560003900D21A9E40D1409F400E439D4200DD5B
:1035700051E15D1B6B1C1F2B00DD7CE12021C91A72
:103580003D0030008F408840DD40791E8F41310082
:1035900007222843D940002507433A40002A09D092
:1035A0000F233B40042B05D03B1DBB42BF417F4254
:1035B000C9191F000B0200D426E26A1CC64B550530
:1035C0006D0D9A4200D106E1C44AFF080A40530734
:1035D00052023B43120B8EE0002B00D0B8E06B1C74
:1035E0005B055B0D012B00DC30E1871A4346B842D6
:1035F000B641CB1A76429E1B330200D54CE13B000C
:103600003343A1D100220024002570E0002B00DC10
:10361000E5E0002E00D183E0AF4EB54260D08026B9
:1036200036043743B846382B00DC3EE143461343AB
:103630001F007A1E97413F18874280414042091877
:103640000B0200D4B0E0A44B01359D4200D1C3E091
:10365000A24A7B080A4001210F401F435108D307AB
:1036600007221F433A4099E79B4EB54238D0802647
:1036700036043743B846382B00DDDCE01F2B00DC76
:1036800030E11E004746203EF740BC46202B04D0C8
:103690004026F31A46469E403243170063467A1E80
:1036A00097411F43CCE0002B00D104E24346134373
:1036B00000D159E14B07C00818438023C9081B03F8
:1036C000194208D04546ED081D4204D14346D008B2
:1036D000590708432900420FC9007F4D1143C0001C
:1036E0004B07CA087C49C00803438D4268D01203C7
:1036F0006D05120B6D0D002112031800130B0A0D3E
:1037000012051A43764B2D0513402B435B00E4074B
:103710005B08234319001CBC90469946A246F0BDA5
:103720003E00164312D05E1E002E00D000E1871826
:103730008742804141444042091801250B0233D59C
:10374000022585E764463300414610001D00C7E7A7
:10375000002D00D0DAE00C000443F3D05C1C00D153
:103760009FE15D4CA64200D12FE1DB43382B00DD09
:1037700066E11F2B00DD83E120240500E41A0F0021
:10378000DD40D940A0404346A7405B1A441EA041FB
:1037900098462F433843171ABA4292414346524241
:1037A000991A64463500CAE607223A40002A00D03A
:1037B000F6E64B07CA084849FF083B438D4296D1BD
:1037C0001900114300D19EE1802109030A4312032D
:1037D000120B414D8FE71500002200238BE7002BD1
:1037E00000D0C7E06B1C5F057F0D012F00DCF1E00E
:1037F000394DAB4200D1B9E085180A0085428941B4
:103800004244494251180722CF076D082F43490807
:103810003A401D00C2E607223049ED1A31403A40D5
:10382000BCE63E002838864000279FE6380001F0BD
:10383000F1F820308EE6434613431F007A1E97416D
:10384000C71BB84280414042091A78E60E003B008F
:1038500006431343002D61D1002E00D0F4E0002B6D
:1038600000D11BE164463900100039E71A4FBB4212
:103870007AD03300FFE630001F3DE840202B03D014
:103880004021CB1A9E4037437B1E9F4107220743AE
:103890003A400021002589E7171A4346BA42B6414B
:1038A000591A76428E1B64464EE61F2B00DDADE0B2
:1038B00020264746F61AB740B9461700B246DF4001
:1038C0004E463E4337005646B240561EB24117435D
:1038D0004246DA408918AEE6FF070000FFFF7FFF8F
:1038E000FFFF0F8020264746F61AB740B94617005B
:1038F000B246DF404E463E4337005646B240561E63
:10390000B24117434246DA40891A99E77F4CA642F2
:103910005BD0802424045B42214327E7002E0CD196
:10392000002B00D1CBE0644639001000774DD7E67C
:10393000764FBB4218D0330075E6002B14D04B07EE
:10394000C00818438023C9081B03194207D0FC088C
:103950001C4204D17907D0080843E14621004C46B7
:10396000420FC9001143C000684DB9E61D00002296
:103970000023C0E6002D5BD10D00054300D1E2E637
:103980005D1C00D1B0E0614DAE421FD0DB43382B4F
:1039900071DC1F2B00DD96E020250F00ED1AAF40F3
:1039A000B9460700AA46DF404D463D432F00554625
:1039B000A840D940451EA84188440743BF189742F4
:1039C00092415142414435003AE664463500414651
:1039D000100085E60B000343002D00D063E6002BAA
:1039E000F5D04346134300D17AE6871887428041D9
:1039F00007224144404209183A400B0200D4D5E660
:103A0000434B01351940C9E5380069E61E004746B9
:103A1000203EF740BC46202B04D04026F31A4646F1
:103A20009E403243170063467A1E97411F4302E6C9
:103A3000364DAE42CAD080252D045B422943A6E70D
:103A40000843411E8841A6E6002B00D148E6871AAC
:103A50004346B842B641CB1A76429E1B33024BD541
:103A6000171A4346BA429241591A5242891A0722FA
:103A700064463A4092E501430F00791E8F419DE76D
:103A80001C000F00203CE740202B03D04024E31A09
:103A900099400843411E884138437CE600220024B7
:103AA00025E6171A4346BA429241591A5242891AD8
:103AB0006446350043E541461000144D10E680226F
:103AC0000024120380E61D000F00203DEF40BC469D
:103AD000202B03D04025EB1A99400843070063468A
:103AE000781E87411F4369E7871897429B414144ED
:103AF0005B42C9183500A3E53B003343CED0072213
:103B000031003A4052E600231A00F4E5FF070000B6
:103B1000FFFF7FFFF0B54F464646D6468446C0B508
:103B20008046194E18030F034D00000B5C008246BF
:103B30003F0B6D0DC90F9146640DDB0F0120B5429F
:103B40000AD0B44203D0A54201D157450CD01CBCC9
:103B500090469946A246F0BD66463E43F7D1AC4238
:103B6000F5D154461443F2D10120C845EFD1994212
:103B700007D0002DEBD163461F433800471EB841E4
:103B8000E5E70020E3E7C046FF070000F0B54F4639
:103B90004646D6464D00C0B50E03C90F8A462C498D
:103BA0001F035C008046360B6D0D91463F0B640D84
:103BB000DB0F8D421ED08C4216D0002D1ED130431B
:103BC0008446002C01D13A4323D06246002A1AD001
:103BD0009A4529D0514602200139084001381CBCC1
:103BE00090469946A246F0BD39001143E5D0022027
:103BF0004042F4E73043FAD1AC420FD0002C0FD151
:103C00003A43E7D00CE00122013B93431800013016
:103C1000E5E763460020002BE1D0DBE73A43E6D13D
:103C20009A45D7D1A542D5DCA54205DBBE42D1D805
:103C300008D00020BE42D2D250460123013898431A
:103C40000130CCE7C845C5D80020C845F4D3C6E745
:103C5000FF070000F0B54F464646D6464D00C0B5BA
:103C60000E03C90F8A462E491F035C008046360B9F
:103C70006D0D91463F0B640DDB0F8D4218D08C42C9
:103C800011D0002D18D130438446002C1ED13A4368
:103C90001CD163460020002B30D051460220013950
:103CA000084001382AE039001143EAD0022025E01B
:103CB0003043FBD1AC4226D0002C26D13A4324D14C
:103CC0005146022001390840013817E06246002AB7
:103CD0000FD09A45E1D1A54205DBBE42DDD819D00F
:103CE0000020BE420AD250460123013898430130D9
:103CF00004E00122013B9343180001301CBC9046B4
:103D00009946A246F0BD3A43D0D19A45C5D1A542C5
:103D1000C3DCE0E7C845C0D80020C845E3D3EDE7E1
:103D2000FF070000F0B55746DE464E464546E0B573
:103D3000834606000F03480087B092461D003F0BE4
:103D4000400DCC0F002800D16FE0DE4B984238D0F8
:103D50008023FF001B041F43730F3B430193DA4B87
:103D60000027994600239B46F60081442B036900F7
:103D70001B0B52469846490DED0F002900D185E0F6
:103D8000D04B994200D173E04346DA0080231B04F4
:103D900013435246CC48520F8446134352460020E8
:103DA0006144D20089442100694000918C46012180
:103DB00049448A460F2F00D990E0C449BF00CF592B
:103DC000BF465B463B43019300D06AE102230827CC
:103DD000002681469B46C9E732005846019B614652
:103DE0000091022800D175E0032800D1FEE10128EE
:103DF00000D02CE100230027002600253F032A0DD8
:103E00003F0BB34812053A4302401B051343009A87
:103E10005B00D1075B080B433000190007B03CBCC6
:103E200090469946A246AB46F0BD5B463B430193A4
:103E300000D12FE1002F00D1A5E1380000F0EAFD0C
:103E400003000B3B1C2B00DD96E11D22D31A5A46C2
:103E50000100DA405E4608398F4013008E403B4334
:103E600001939C4B00271B1A994600239B467DE734
:103E7000414653460B4393498C46E144002B00D006
:103E80001AE102220220174300228CE7134300D1DB
:103E90000DE14346002B00D181E1404600F0BAFD20
:103EA00002000B3A1C2A00DD72E10100434608398A
:103EB0008B4098461D239A1A5346D3401A00434616
:103EC000134352468A404946081A8249894681442A
:103ED000002068E77B4B002700268EE7140C1204B5
:103EE000120C1100370C3604350C794328008C462F
:103EF0002E0060436044834656432100300C8046C8
:103F00005846794340440291844506D98846802129
:103F100049028C46E044414602913604010C360CBD
:103F200000048B4681191E0C1B041B0C0391190005
:103F300079438C46280075436544A8465843050CD0
:103F400045447743A94203D9802149028C466744FE
:103F5000290C8C4639000004000C2D042D186144F6
:103F6000AB4405915946049101990F043F0C080C8C
:103F7000390051434243904602008C46090C8B465F
:103F800062437C4344445C44A04503D980214902F8
:103F900088464244210C884661460904090C8C4637
:103FA00039005943434370437E430F0CF6182404F1
:103FB000BE19644442448C46B34203D980235B0259
:103FC00098464044029B61469846049B370443440C
:103FD0009B46AB45AD416B420D0405992D0C8C46BB
:103FE0007F196744FD18A8465D462D19A542A441D6
:103FF00093466442A446C344DC448F42BF41984583
:104000009B4193459241A445A4415B427F421F439B
:10401000360C52426442BF192243BF186246381818
:104020004302D20D039913436A020A43501E824190
:104030006146ED0D2A434E023243D90100D4B3E06C
:104040000126500832400243DE0732435B08224C0F
:104050005444002C62DD510709D00F201040042881
:1040600005D0101D9042924152429B180200D90186
:1040700004D580241948E40003405444184884427D
:1040800000DD27E75E075B02D2081F0B63051643BE
:104090005B0DB2E6002399460133042700269B46B8
:1040A00064E60323019781460C279B465EE60122C6
:1040B00001201743002276E6032303201F434346D3
:1040C00071E6C046FF07000001FCFFFF104B08101F
:1040D000FFFF0F800DFCFFFFFF030000FFFFFFFE4F
:1040E000FE0700000023802700933F030026434B78
:1040F00083E6019B3200A446584670E6AC466EE665
:10410000802701993F0339422DD03B422BD11F43D9
:104110003F033F0B00951600384B6EE601252D1B23
:10412000382D00DD66E61F2D40DC35481C0050446C
:10413000160082408440EE40501E824134431443B6
:10414000EB40620709D00F222240042A05D022004A
:10415000141D9442804140421B181A023ED501238F
:104160000027002649E68027019B3F031F433F03AA
:104170003F0B0094214B40E603005A46283B9A40EF
:10418000002601926DE6584600F044FC203057E6C8
:1041900003005246283B9A401300002293E6504603
:1041A00000F038FC20307BE6CA4650E71F201E0096
:1041B0004042041BE640202D03D0124C5444A3403F
:1041C0001A43501E8241324307260027164009D069
:1041D0000F200023104014000428B9D122005E07EC
:1041E0005B021F0BD2081643002306E680273F031D
:1041F0001F433F033F0B1600004BFEE5FF07000087
:104200001E0400003E040000F8B557464E464546E1
:10421000DE460C000903E0B5490A460F5F00314352
:104220001E03DB0F760A9B46530F3343C84E6500CF
:10423000C000E40FD2006D0DA24681467F0D9C4662
:104240009046B74200D1B9E05B46012673409B46D9
:10425000EE1BA34500D183E0002E63DD002F00D0CC
:10426000B1E06346134300D123E1731E002B00D05D
:10427000BAE1861A6346B04280410125C91A40421C
:10428000091A0B0200D447E149024B0A98464346FB
:10429000002B00D189E1404600F0BCFB0300083B45
:1042A0001F2B00DD7CE120223000D21A4146D04095
:1042B000994002009E400A439D4200DD6AE15D1B79
:1042C0006B1C1F2B00DD94E1202110003500C91A62
:1042D0008E40DA408840DD40711E8E411100072279
:1042E0002843002506433240002A09D00F233340DB
:1042F000042B05D0331DB342B641764289191E0006
:104300000B0200D43DE26A1C914B55056D0D9A429B
:1043100000D119E18F4AF6080A4057075202374385
:10432000120B9BE0002E00D0C5E06E1C7605760DCA
:10433000012E00DC48E16746861ACB1BB042BF4124
:104340007F42B8461F004346FF1A3B00B8461B0297
:1043500000D55FE137439AD100220024002579E09F
:10436000002E00DCFAE0002F00D18DE0784B9D425A
:1043700067D0802367461B041F43BC46382E00DCF1
:1043800052E1634613435A1E93411E1886428041F0
:10439000404209180B0200D4BEE06D4B01359D422E
:1043A00000D1D2E06B4A73080A4001210E401E433F
:1043B0005108D30707221E43324095E71E001643DB
:1043C00000D045E740E7624B9D423AD080236746E4
:1043D0001B041F43BC46382E00DDEBE01F2E00DC23
:1043E0003AE133006746203BDF403B00202E05D0FA
:1043F0004027BF1B6646BE40324390464646721E6B
:1044000096413343DAE0002B00D114E263461343B4
:1044100000D168E180234E07C008C9081B0306438A
:10442000194208D06046C008184204D16346010012
:10443000D2085E071643F3009946C900720F444D37
:1044400011434B46DE08424B4F073743CA089D4293
:1044500000D16EE012036D05120B6D0D00211203E9
:10446000130B0A0D12051A433B4B2D0513402B432A
:104470005B00E4075B082343380019003CBC90460E
:104480009946A246AB46F8BD6346134311D0731E4E
:10449000002B00D007E186188642804161444042EB
:1044A000091801250B0237D502257BE73E0061463E
:1044B00091463500C5E75C46002D00D0E1E00B00D9
:1044C0000343F3D0731C00D1ACE1214B9F4200D1D8
:1044D0003AE1F343382B00DD6FE11F2B00DD8CE167
:1044E00020250E00ED1AAE40B0460600AA46DE407A
:1044F000454635432E005546D940A8406346451EE3
:10450000A8415B1A9C463043161AB2429241634658
:104510005242991A3D00B4E607223240002A00D0E8
:10452000E4E60B4BF6084F073743CA089D4200D01C
:1045300090E73B00134300D1A6E180231B031A43FD
:104540001203120B024D89E715000022002785E7B0
:10455000FF070000FFFF7FFFFFFF0F80002E00D04E
:10456000C7E06B1C5E05760D012E00DCF0E0C84D47
:10457000AB4200D1B9E085180A0085428941624406
:10458000494251180722CE076D082E434908324090
:104590001D00A9E6BF49ED1A114007223240A3E6EB
:1045A000320028388240002686E6300000F032FAD9
:1045B000203073E6634613435A1E9341C61AB04235
:1045C00080414042091A5CE60E00674606431743E5
:1045D000002D5ED1002E00D0F3E0002F00D11EE1AF
:1045E0005C46614691462CE7A94FBE427BD01E0037
:1045F000F1E610001F3DE840202B03D04021CB1AEC
:104600009A401643731E9E41072206433240002102
:10461000002583E7161A6346B2428041591A404288
:104620000B1A98465C4632E61F2E00DDABE02027D1
:10463000BB1B9A4663465746BB40994613004F46FC
:10464000F3401F433B005746BA40571EBA4113433D
:104650006246F240891898E62027BB1B9A466346BB
:104660005746BB40994613004F46F3401F433B005B
:104670005746BA40571EBA4113436246F240891A60
:104680009CE7834B9F425FD080252D0473422943D2
:1046900020E7002E0CD1002F00D1D0E05C4661460F
:1046A00091467B4DCDE67A4FBE421CD01E0065E69A
:1046B000002F18D0C0084E0706438020C908000309
:1046C000014208D06346DC08044204D12100DA46E6
:1046D000D2085E071643F300994601245346C900E9
:1046E000720F11431C406A4DABE61D0000220027EB
:1046F000B4E6002D59D10B00034300D1D6E6731C5C
:1047000000D1B2E0624B9F421ED0F343382B6FDCE6
:104710001F2B00DD97E020250E00ED1AAE40B046BD
:104720000600AA46DE40454635432E005546A840C1
:10473000D940451EA8418C440643B6189642924182
:10474000514261443D0025E63D006146914678E6D0
:104750000B000343002D00D055E6002BF5D0634637
:10476000134300D16DE68618864280416144404281
:10477000091800220B0200D4D0E6464B013519403F
:10478000B2E5B1465DE633006746203BDF403B00C3
:10479000202E05D04027BF1B6646BE4032439046C0
:1047A0004646721E96413343EFE5394B9F42CBD0CC
:1047B00080252D0473422943A8E70843411E884100
:1047C000A2E6002F00D13CE66346861ACF1AB0421B
:1047D0009B415B42FB1A98461B024ED5161A634654
:1047E000B2429241591A5242891A5C4600227BE534
:1047F00001430E00711E8E419FE71D000E00203DFB
:10480000EE40B046202B04D04025EB1A99400843D7
:10481000814648464346411E8841184374E60022BB
:10482000002417E6161A6346B2429241591A5242C0
:10483000891A3D0025E561469146154D01E6802225
:104840000024120379E61D000E00203DEE40B04624
:10485000202B04D04025EB1A9940084381464E4650
:104860004346711E8E411E4367E7861896429B4160
:1048700061445B42C9183D008CE547463743CED0C2
:1048800007224146324049E600273A00E6E5C046A5
:10489000FF070000FFFF7FFF70B500282DD0C31772
:1048A000C5185D40C40F280000F0B4F8154B1B1A62
:1048B0005B055B0D0A2815DD0B38854000222D03B2
:1048C0002D0B002110002D030A0D2D0B12052A437C
:1048D0000D4D1B052A4013435B00E4075B0823438F
:1048E000190070BD02002900153291400A000B2109
:1048F000081AC5402D032D0BE3E7002400230025F3
:104900000022DEE71E040000FFFF0F8010B5041E2A
:1049100025D000F07FF8144B1B1A5B055B0D0A28AD
:1049200012DD0B38844000222403240B00211000E8
:1049300024030A0D240B120522430C4C1B052240B4
:1049400013435B00590810BD02002100153291404D
:104950000A000B21081AC4402403240BE6E70023B5
:1049600000240022E2E7C0461E040000FFFF0F8083
:104970004100090E4B1C70B5DBB24602750AC40F2C
:10498000012B14DDE0239B006D07360BCB180021B3
:104990000A0D280012051C4D32435B052A405B08B6
:1049A00013435B00E4075B082343190070BD002933
:1049B00014D1002D1ED0280000F02CF80A281CDC91
:1049C0000B232A001B1ADA40030015339D400F4BBE
:1049D00012031B1A5B05160B5B0DD8E7002D06D0E2
:1049E000320B802636036D071643094BCFE7084B81
:1049F0000026CCE700230026C9E703002A000B3B72
:104A00009A400025E3E7C046FFFF0F8089030000BE
:104A1000FF0700001C2101231B04984201D3000C56
:104A200010391B0A984201D3000A08391B09984221
:104A300001D30009043902A2105C40187047C04637
:104A40000403020201010101000000000000000057
:104A500010B5002903D1FFF7DDFF203002E0081C6C
:104A6000FFF7D8FF10BDC04670B500220C4B040004
:104A70000D00FEF7C3FB002804D12000290000F040
:104A800011F870BD064B002220002900FFF7BCFB87
:104A900000F008F880231B069C466044F1E7C046FE
:104AA0000000E04130B5144D0A034B00120B5B0DC2
:104AB000C90F0024AB4211DD104CA34210DC80244E
:104AC000640322430E4CE41A1F2C0CDD0D48C31A5C
:104AD000DA4013005C42002900D11C00200030BDE8
:104AE000094BCC18FAE7094DE040AC4663449A40C4
:104AF00013000343EEE7C046FE0300001D04000060
:104B00003304000013040000FFFFFF7FEDFBFFFFF5
:104B1000DC3E0810DE3D0810DE3D0810FC400810A9
:104B2000D83D0810D83D0810E4400810FC4008109B
:104B3000D83D0810E4400810D83D0810FC4008108B
:104B4000F2400810F2400810F2400810004108102E
:104B50000000000000000000000000000000000055
:104B6000F0B5D6464F464646C0B598B000F03EF97F
:104B7000002823D19C4B08249A460AAD80210120AD
:104B800009064042FCF7EEFE0300C20646D4820648
:104B900026D4420614D4020600D583E080204000CB
:104BA00003420CD00CA9FCF7DFFE0C9FBB1C00DA03
:104BB00019E1002F00DB04E1002187E0FEE7FEE7BA
:104BC0000CA94020FCF7D0FE0C998B1C00DA98E071
:104BD000002900DBC4E000210D98FCF7CFFECDE7F3
:104BE0000CA92020FCF7C0FE0C998B1C00DA87E092
:104BF0000029F0DB00D083E0159A0E9B9046109AB6
:104C00009946149F119B0D980592082A03D1042BF5
:104C100001D1042F76D02700390057E00CA91020CD
:104C2000FCF7A2FE0C998B1C69DB0029D3DB66D153
:104C30000E9B109E9946119F129A149B0D980596F3
:104C4000082E42D1042A40D1042B3ED123002A0051
:104C5000FCF78EFE082838D180231B010D9898465A
:104C60009F4244D952460121FCF782FE40452CD197
:104C7000042307AA02210D98FCF77AFE042824D108
:104C8000079B009702935346484601930A9A0B9B51
:104C900000F0BAF80890042308AA00210D98FCF748
:104CA0006BFE89E70CA98020FCF75EFE0C998B1C3B
:104CB00010DB00298FDB0DD1109A0E9F149B0D98ED
:104CC0000592082A01D1042B05D021000D98FCF78C
:104CD00055FE53E7FEE723002A00FCF749FE0828AB
:104CE000F3D10A9A0B9B380000F0D2F8D2E73B00D0
:104CF00052460121FCF73CFE8742B9D0E5E7FEE7CA
:104D0000FEE7FEE723002A00FCF732FE082800D069
:104D100081E73B0007AA01210D98FCF729FE042832
:104D200000D078E75346029343460193079B4846D9
:104D300000930A9A0B9B00F085F800270890042343
:104D400008AA00210D98FCF717FE089BBB4200D073
:104D500062E74346524601210D98FCF70DFE5BE7E2
:104D60000029CED1109E0E9F149A159B0D98059682
:104D7000082E00D04FE7042A00D04CE7082B00D0C3
:104D800049E7230008AAFCF7F3FD082800D042E712
:104D9000089A099B3800009500F06AF800270790F0
:104DA000042307AA00210D98FCF7E6FD079BBB42F0
:104DB00000D031E723002A0001210D98FCF7DCFD2B
:104DC0002AE7002F0FD1149B21009846042B00D016
:104DD0007CE700F071F843460A902A0039000D98EC
:104DE000FCF7CAFD18E7FEE70090010810B500F0D7
:104DF00065F8002800D110BD00F0E0F90028FAD1D4
:104E000000F05CF8F7E7C0461900130010B50B433B
:104E100082B01400002B12D00123069A9A4301336A
:104E2000002A09D1059B02000193049B20000093F6
:104E3000069B00F0A7F80300180002B010BD08237D
:104E4000FAE7C04610B51900140082B01A430823CF
:104E5000002A09D0069B02000193059B20000093C5
:104E6000049B00F04BF80300180002B010BDC046D0
:104E700010B5190014001A430823002A05D0029B1C
:104E80000200200000F010F90300180010BDC04619
:104E900010B5140011001C430822002C07D002009A
:104EA0000800190000F03CF902000A2801D01000A7
:104EB00010BD0132FBE7C0460020704710B500F07E
:104EC0006FFE00F081FE041E03D000F06BFE200098
:104ED00010BD064800F052FA041E02D10122044B14
:104EE0001A70044B044A5A60EFE7C0463098010834
:104EF00030A001080098010808980108F8B5474655
:104F0000CE4680B598461B4B06001B780F00150057
:104F10000B24012B04D020000CBC90469946F8BD10
:104F200000F03EFE144B2A0030003900994600F094
:104F30009FFC124D041E07D0114A00212800FBF7E8
:104F4000E4FB00F02FFEE6E74B462900186801F06D
:104F5000D5FC041EF0D1089A4146E86900F024FE11
:104F6000041EE9D1290028314144089A0998FBF729
:104F7000B0FBE1E730A0010800980108089801089B
:104F800028080000F8B54E4645465746DE46E0B5CF
:104F90009946404B06001D780F0090460B24012DCA
:104FA00006D020003CBC90469946A246AB46F8BDD0
:104FB00000F0F6FD80230A9A1B019A420AD9364B6B
:104FC00008249A46354A00215046FBF79EFB00F024
:104FD000E9FDE6E7324B4246300039009B4600F0DF
:104FE00047FC2D4B041E9A4631D00528EAD12B4AA6
:104FF00018000021FBF789FB53460A9A1A624A46B9
:105000005A62002399460A9A264D0B992800FBF70D
:1050100060FB0A9B283D5846EB6100F085FA041EB0
:10502000D0D15B462900186801F0B4FC041EC9D138
:105030005B4642463000390000F0E0FA041E24D1FD
:105040004B46002B18D100F09FFD0400BAE7190071
:105050005B46186801F052FC041EB3D153465B6AEC
:1050600001342B42AED153464A465A620A9A1A621A
:105070005B461B689946C7E700F086FD041EA1D178
:10508000484600F083FE04009CE75B46186800F089
:105090007DFE97E730A00108089801082808000065
:1050A0000098010830980108F8B54746CE4680B50B
:1050B0009846174B06001B780F0015000B24012B98
:1050C00004D020000CBC90469946F8BD00F068FD65
:1050D000104B2A0030003900994600F0C9FB0E4DF4
:1050E000041E07D00D4A00212800FBF70EFB00F03C
:1050F00059FDE6E74B462900186801F0FFFB041E46
:10510000F0D14346EA691A606A6A5A60EAE7C04623
:1051100030A001080098010808980108280800003C
:10512000F0B546464F46D646C0B5204B06001D7822
:105130000F0090460B24012D05D020001CBC90468A
:105140009946A246F0BD00F02BFD194B42463000B7
:1051500039009A4600F08CFB164B041E994607D086
:10516000154A00214846FBF7D0FA00F01BFDE4E7A2
:1051700019005346186801F0C1FB041EF0D14B46DC
:105180005B6A01342B42EBD142463000390000F01B
:105190001FFC041EE4D153461D6800F0F5FC041EFC
:1051A000DED1280000F0F2FD0400D9E730A00108AC
:1051B00000980108089801082808000010B500F0C0
:1051C00007FD002800D010BD00F0FEFC0028FAD139
:1051D00000F0BEF8F7E7C046F0B583005E58DBB0DC
:1051E000B227CA686B460C0031007F00DA511C31CF
:1051F0003A0005006846FBF76CFAB4226946520093
:10520000300001F055FB002804D1022364192372F9
:105210005BB0F0BD2369002B03D164190133237205
:10522000F6E76A46D351B42269465200300001F0D5
:105230003FFB431E984101234042984303306419C9
:105240002072E5E7F0B5C646002300B50020DCB0CB
:10525000019323F09BFD041E04D020005CB004BC2D
:105260009046F0BD01A9002023F07CFD041EF4D17E
:10527000354D1020290001F025FA041EEDD129003A
:10528000102001F02BFA041EE7D1304D019C2800BC
:1052900001F068FA08216B46B2225B18290052001F
:1052A0001C3118009C50FBF714FAB42202A95200DA
:1052B000280001F0D5FA041E40D101F03BFA041E8B
:1052C000CBD18223C026FF33EF5C76009846781C52
:1052D0002B003200310000F08BFC041EBDD1424691
:1052E000AB5D02A902900120AB54AF55019D23F0A4
:1052F00039FD002825D1029B9D4209D9012023F0C8
:1053000045FD041EA9D1029B013302939D42F5D8AD
:1053100002A9022023F026FD002812D1029B9D4203
:105320000AD9022023F032FD041E00D095E7029B2B
:10533000013302939D42F4D800248EE701F0FAF97C
:105340008BE70B2489E7C04634A0010848A0010878
:1053500010B523F0F5FC00280DD1C422064C5200F4
:1053600000212000FBF7D1F90123C022237752004E
:10537000A354FFF767FF10BD48A001080023C02118
:10538000F0B5674E87B001AC23726372E3602361AE
:1053900060603300002249000120019600F064FDA6
:1053A000002801D001232372C02163680022490034
:1053B000022000F059FD002801D001236372594FEB
:1053C0001020390001F07EF9051E02D0280007B038
:1053D000F0BD3900102001F081F9051EF6D123F04F
:1053E000AFFC051E0BD104A9002023F0BBFC051E59
:1053F00005D16946012023F0B5FC051E02D001F05D
:1054000099F9E3E705A9022023F0ACFC051EF6D1CB
:105410002369009A934200D02061237A012B03D0A4
:1054200021000020FFF7D8FE637A012B03D0210072
:105430000120FFF7D1FE01F07DF9051EC6D1019BC9
:105440001B7F012B01D00123237261680B7F012B8D
:1054500001D00123637202232289FF339A4240D094
:10546000237A012B4FD0637A012B3CD0022B41D001
:10547000C023802202205B005200F25200F086FC22
:10548000051E01D00528A1D1002369460120E4684A
:10549000009323F067FC002823D1009B9C420AD98B
:1054A000012023F073FC051E00D08FE7009B013321
:1054B00000939C42F4D86946022023F053FC051E59
:1054C0000FD1009B9C4205D825E0009B013300933F
:1054D0009C4220D9022023F059FC0028F5D0050079
:1054E00074E70B2572E780228033FF335200F252BB
:1054F0000220C3E7C02201235200B3523000FBF761
:10550000E8F80120BAE7C0225200B3523000FBF79E
:10551000E0F80120B2E7300001F01AF956E7C04682
:1055200048A0010834A00108334B70B51A6B596BC1
:1055300004000A434ED01A6D596D0A434CD01A6FBD
:10554000596F0A434AD0190090310A6849680A43E2
:1055500046D01900B0310A6849680A4342D01900A0
:10556000D0310A6849680A433ED01900F0310A6810
:1055700049680A433CD019001131FF310A68496873
:105580000A4337D019003131FF310A6849680A43AC
:105590002CD019005131FF310A6849680A4309D0FB
:1055A0007133FF331A685B6803201A430A25002A07
:1055B00001D070BD09250335280000F00DFB00283F
:1055C00002D025600020F4E7280000F0DFFB00286F
:1055D000F7D0EEE70025EEE70125ECE70225EAE744
:1055E0000325E8E70425E6E70525E4E70825E2E7E3
:1055F0000625E0E70725DEE748A00108F0B54E469E
:1056000057464546DE46E0B5984C9946236B8BB02D
:1056100005000F001600834259D0236DAB4200D124
:10562000AAE0236FAB4200D1B1E0230090331A68A7
:10563000AA4200D1B6E02300B0331A68AA4200D1D2
:10564000BCE02300D0331A68AA4200D1C2E0230094
:10565000F0331A68AA4200D1C8E023001133FF33A7
:105660001A68AA4200D1CDE023003133FF331A6813
:10567000AA4200D1D3E023005133FF331A68AA4273
:1056800000D1D9E023007133FF331A68AA4200D158
:10569000DFE04B461B68DA1E52019046A2181563E4
:1056A0009D1E4B466D01651996635763596810221C
:1056B0002800FBF70EF8FFF7C5FD061E4FD130009E
:1056C0000BB03CBC90469946A246AB46F0BD636B1E
:1056D0008B42A2D1A36B9A429FD1002398464346A6
:1056E00001335B019A46A2442022514602A8FAF7F0
:1056F000F0FF53461B6900209B4653465B6900211F
:105700000193434600225B01E318186359639A63CF
:10571000002120325046FAF7F8FF4B461B68DA1E8C
:1057200052019046A21815639D1E4B466D016519E6
:1057300096635763596810222800FAF7CAFFFFF7EB
:1057400081FD061EBBD05B46019A134307D05B4622
:10575000079202A9202250460693FAF7BAFF0022C8
:10576000002344442263636300232032A3630021A7
:105770002800FAF7CAFFA2E7636DBB4200D050E7EA
:10578000A36D9E4200D04CE701239846A7E7636FC4
:10579000BB4200D049E7A36F9E4200D045E70223F9
:1057A00098469CE75B68BB4200D044E79823E358E7
:1057B0009E4200D03FE70323984690E75B68BB42D8
:1057C00000D03EE7B823E3589E4200D039E70423D7
:1057D000984684E75B68BB4200D038E7D823E3589B
:1057E0009E4200D033E70523984678E75B68BB42CA
:1057F00000D032E7F823E3589E4200D02DE706237D
:1058000098466CE75B68BB4200D02DE78C235B00B9
:10581000E3589E4200D027E7072398465FE75B687E
:10582000BB4200D027E79C235B00E3589E4200D098
:1058300021E70823984652E75B68BB4200D021E786
:10584000AC235B00E3589E4200D01BE70923984637
:1058500045E75B68BB4200D01BE7BC235B00E35815
:105860009E4200D015E70A23984638E748A0010871
:1058700070B5564C256B85423FD0256D85424ED084
:10588000256F854253D0250090352E68864256D02C
:105890002500B0352E6886425AD02500D0352E68B6
:1058A00086425ED02500F0352E68864262D0250003
:1058B0001135FF352E68864265D025003135FF351C
:1058C0002E6886426AD025005135FF352E68864203
:1058D00000D16FE025007135FF352E68864201D07A
:1058E000052070BD68688842FAD1BC214900615822
:1058F00005208A42F5D10A2106E0656B8D42BCD1B4
:10590000A56BAA42B9D10021CA1C013149011A6014
:10591000586861181022FAF7DCFE0020E1E7656D97
:105920008D42ADD1A56DAA42AAD10121ECE7656FE8
:105930008D42A8D1A56FAA42A5D10221E4E76D68E6
:105940008D42A5D198256559AA42A1D10321DBE753
:105950006D688D42A1D1B8256559AA429DD1042117
:10596000D2E76D688D429DD1D8256559AA4299D15B
:105970000521C9E76D688D4299D1F8256559AA427C
:1059800095D10621C0E76D688D4296D18C256D00BA
:105990006559AA4200D090E70721B5E76D688D42AE
:1059A00000D090E79C256D006559AA4200D08AE797
:1059B0000821A9E76D688D4200D08BE7AC256D000A
:1059C0006559AA4200D085E709219DE748A0010852
:1059D00070B56C4C88B0236B834249D0236D8342F1
:1059E00000D16BE0236F834200D171E0230090333C
:1059F0001D68854200D175E02300B0331D688542E3
:105A000000D17AE02300D0331D68854200D17FE0C9
:105A10002300F0331D68854200D184E02300113358
:105A2000FF331D68854200D188E023003133FF3306
:105A30001D68854200D18DE023005133FF331D687E
:105A4000854200D192E023007133FF331D68854207
:105A500003D00525280008B070BD5B688B42F8D1E3
:105A6000BC235B00E35805259A42F3D1053506E0D7
:105A7000636B8B42B2D1A36B9A42AFD100256E1CEF
:105A80007601A619202231006846FAF722FE00228C
:105A900000236D0164192263636300232032A36332
:105AA00000213000FAF731FEFFF7CCFB051ED1D004
:105AB000202269463000FAF70CFECBE7636D8B427B
:105AC00000D08FE7A36D9A4200D08BE70125D6E77F
:105AD000636F8B4200D089E7A36F9A4200D085E7BD
:105AE0000225CCE75B688B4200D085E79823E3581A
:105AF0009A4200D080E70325C1E75B688B4200D063
:105B000080E7B823E3589A4200D07BE70425B6E744
:105B10005B688B4200D07BE7D823E3589A4200D0E1
:105B200076E70525ABE75B688B4200D076E7F82384
:105B3000E3589A4200D071E70625A0E75B688B42E4
:105B400000D072E78C235B00E3589A4200D06CE7E8
:105B5000072594E75B688B4200D06DE79C235B00D0
:105B6000E3589A4200D067E7082588E75B688B42D4
:105B700000D068E7AC235B00E3589A4200D062E7AC
:105B800009257CE748A00108822310B5034AFF33AA
:105B9000D05C013000F0FAF810BDC04648A0010802
:105BA0007047C0467047C046814205D8401A9042AF
:105BB00080410622104070470720FCE743425841CD
:105BC000052340421840704710B500F08BFA10BD15
:105BD00010B500F041FC10BD00B583B001A900F084
:105BE0002FFA002801D103B000BD0520FBE7C04615
:105BF000F0B5C64600B58EB00D0005A9040016002C
:105C0000984600F01DFA00284BD006AF009709AB6C
:105C100005AA2900200000F081FB00283DD1002EBC
:105C20001FD0B5423DD34346002B3AD032000A99EB
:105C3000099800F0A7F9002835D109A938000B967A
:105C400000F0ACF900282ED1099B3C6818000393A2
:105C500000F0ECF9099B386019002000039300F074
:105C6000ADFC3900099800F0B1FC00281BD109A94E
:105C7000059800F019FD002815D1059800F0B2F93B
:105C8000002810D1099B002B01D1002E03D100F078
:105C9000ADFA002807D100F089FA0EB004BC904696
:105CA000F0BD0820F9E70B20F7E7C04630B589B012
:105CB0000D0002A9040000F0C3F9002810D103A9C7
:105CC000029800F0CFFA002808D1079B0193A34265
:105CD00006D1069B01936B60059B2B6009B030BD1C
:105CE0000520FBE770B58CB00D0003A914001E0061
:105CF00000F0A6F9002842D107A9039800F0B2FAF3
:105D000000283CD104A9079800F0DEFA002839D118
:105D1000089B2A00E1180798330000F033F90028A7
:105D200030D1099B0193AB422ED307A904A800F000
:105D300035F9002826D10798049C00F077F90799D7
:105D40000490200000F03AFC04A9079800F03EFC03
:105D5000002817D107A9039800F0A6FC002811D14C
:105D6000039800F03FF900280CD1079B002B03D0CB
:105D700000F03CFA002805D100F018FA00E00520F8
:105D80000CB070BD0B20FBE70995CEE7F0B5CE4611
:105D9000474680B58BB004A900F052F900280AD11B
:105DA00005A9049800F05EFA002806D00BB00CBCE0
:105DB00090469946F0BD0520F8E7099B180003932B
:105DC000FFF7FCFE0028F6D1059D089F099005907D
:105DD0000890079005A90498069E00F065FC00282D
:105DE000E4D10023984680235B010024994608E013
:105DF00005A9200000F058FC0028D7D101340D2C53
:105E00001DD0049BA342F9D005A9200000F02AFA76
:105E10000028CBD1059B0393AB42E9D1099B0393A7
:105E2000002BE5D0069BB342E2D9994500D99946AB
:105E3000DB1B0693089B9C460393E044D8E743464C
:105E40004A46009339003300280000F039F8002852
:105E5000ACD1002D03D000F0C9F9002802D100F028
:105E6000A5F9A3E70B20A1E7F0B589B00E0002A9C0
:105E7000040015001F0000F0E3F8002809D103A971
:105E8000029800F0EFF9002817D1079B0193A34275
:105E900002D0052009B0F0BD059B32002900180092
:105EA0000193FFF781FE0028F4D13B003200290066
:105EB00003A800F04DF80028ECD00B20EAE7C0461C
:105EC000F0B5C64600B588B00F0005A9050090469C
:105ED0001E0000F0F9F9041E04D0200008B004BC34
:105EE0009046F0BD079B28009C46674403930797A4
